{
  "contractName": "Admin",
  "abi": [
    {
      "inputs": [],
      "payable": false,
      "stateMutability": "nonpayable",
      "type": "constructor"
    },
    {
      "anonymous": false,
      "inputs": [
        {
          "indexed": false,
          "internalType": "uint256",
          "name": "buyerId",
          "type": "uint256"
        },
        {
          "indexed": false,
          "internalType": "string",
          "name": "buyerName",
          "type": "string"
        },
        {
          "indexed": false,
          "internalType": "uint256",
          "name": "buyerAadharNumber",
          "type": "uint256"
        },
        {
          "indexed": false,
          "internalType": "uint256",
          "name": "buyerMobileNumber",
          "type": "uint256"
        },
        {
          "indexed": false,
          "internalType": "address payable",
          "name": "owner",
          "type": "address"
        },
        {
          "indexed": false,
          "internalType": "bool",
          "name": "buyerAdded",
          "type": "bool"
        }
      ],
      "name": "BuyerAdded",
      "type": "event"
    },
    {
      "anonymous": false,
      "inputs": [
        {
          "indexed": false,
          "internalType": "uint256",
          "name": "farmerId",
          "type": "uint256"
        },
        {
          "indexed": false,
          "internalType": "string",
          "name": "farmerName",
          "type": "string"
        },
        {
          "indexed": false,
          "internalType": "uint256",
          "name": "farmerAadharNumber",
          "type": "uint256"
        },
        {
          "indexed": false,
          "internalType": "uint256",
          "name": "farmerMobileNumber",
          "type": "uint256"
        },
        {
          "indexed": false,
          "internalType": "address payable",
          "name": "owner",
          "type": "address"
        },
        {
          "indexed": false,
          "internalType": "bool",
          "name": "farmerAdded",
          "type": "bool"
        }
      ],
      "name": "FarmerAdded",
      "type": "event"
    },
    {
      "anonymous": false,
      "inputs": [
        {
          "indexed": false,
          "internalType": "uint256",
          "name": "warehouseId",
          "type": "uint256"
        },
        {
          "indexed": false,
          "internalType": "string",
          "name": "warehouseName",
          "type": "string"
        },
        {
          "indexed": false,
          "internalType": "uint256",
          "name": "warehouseRegNumber",
          "type": "uint256"
        },
        {
          "indexed": false,
          "internalType": "uint256",
          "name": "warehouseContactNumber",
          "type": "uint256"
        },
        {
          "indexed": false,
          "internalType": "uint256",
          "name": "warehouseCapacity",
          "type": "uint256"
        },
        {
          "indexed": false,
          "internalType": "address payable",
          "name": "owner",
          "type": "address"
        },
        {
          "indexed": false,
          "internalType": "bool",
          "name": "warehouseAdded",
          "type": "bool"
        }
      ],
      "name": "WarehouseAdded",
      "type": "event"
    },
    {
      "constant": true,
      "inputs": [],
      "name": "buyerCount",
      "outputs": [
        {
          "internalType": "uint256",
          "name": "",
          "type": "uint256"
        }
      ],
      "payable": false,
      "stateMutability": "view",
      "type": "function"
    },
    {
      "constant": true,
      "inputs": [
        {
          "internalType": "uint256",
          "name": "",
          "type": "uint256"
        }
      ],
      "name": "buyerDetails",
      "outputs": [
        {
          "internalType": "uint256",
          "name": "buyerId",
          "type": "uint256"
        },
        {
          "internalType": "string",
          "name": "buyerName",
          "type": "string"
        },
        {
          "internalType": "uint256",
          "name": "buyerAadharNumber",
          "type": "uint256"
        },
        {
          "internalType": "uint256",
          "name": "buyerMobileNumber",
          "type": "uint256"
        },
        {
          "internalType": "address payable",
          "name": "owner",
          "type": "address"
        },
        {
          "internalType": "bool",
          "name": "buyerAdded",
          "type": "bool"
        }
      ],
      "payable": false,
      "stateMutability": "view",
      "type": "function"
    },
    {
      "constant": true,
      "inputs": [],
      "name": "farmerCount",
      "outputs": [
        {
          "internalType": "uint256",
          "name": "",
          "type": "uint256"
        }
      ],
      "payable": false,
      "stateMutability": "view",
      "type": "function"
    },
    {
      "constant": true,
      "inputs": [
        {
          "internalType": "uint256",
          "name": "",
          "type": "uint256"
        }
      ],
      "name": "farmerDetails",
      "outputs": [
        {
          "internalType": "uint256",
          "name": "farmerId",
          "type": "uint256"
        },
        {
          "internalType": "string",
          "name": "farmerName",
          "type": "string"
        },
        {
          "internalType": "uint256",
          "name": "farmerAadharNumber",
          "type": "uint256"
        },
        {
          "internalType": "uint256",
          "name": "farmerMobileNumber",
          "type": "uint256"
        },
        {
          "internalType": "address payable",
          "name": "owner",
          "type": "address"
        },
        {
          "internalType": "bool",
          "name": "farmerAdded",
          "type": "bool"
        }
      ],
      "payable": false,
      "stateMutability": "view",
      "type": "function"
    },
    {
      "constant": true,
      "inputs": [],
      "name": "name",
      "outputs": [
        {
          "internalType": "string",
          "name": "",
          "type": "string"
        }
      ],
      "payable": false,
      "stateMutability": "view",
      "type": "function"
    },
    {
      "constant": true,
      "inputs": [],
      "name": "warehouseCount",
      "outputs": [
        {
          "internalType": "uint256",
          "name": "",
          "type": "uint256"
        }
      ],
      "payable": false,
      "stateMutability": "view",
      "type": "function"
    },
    {
      "constant": true,
      "inputs": [
        {
          "internalType": "uint256",
          "name": "",
          "type": "uint256"
        }
      ],
      "name": "warehouseDetails",
      "outputs": [
        {
          "internalType": "uint256",
          "name": "warehouseId",
          "type": "uint256"
        },
        {
          "internalType": "string",
          "name": "warehouseName",
          "type": "string"
        },
        {
          "internalType": "uint256",
          "name": "warehouseRegNumber",
          "type": "uint256"
        },
        {
          "internalType": "uint256",
          "name": "warehouseContactNumber",
          "type": "uint256"
        },
        {
          "internalType": "uint256",
          "name": "warehouseCapacity",
          "type": "uint256"
        },
        {
          "internalType": "address payable",
          "name": "owner",
          "type": "address"
        },
        {
          "internalType": "bool",
          "name": "warehouseAdded",
          "type": "bool"
        }
      ],
      "payable": false,
      "stateMutability": "view",
      "type": "function"
    },
    {
      "constant": false,
      "inputs": [
        {
          "internalType": "string",
          "name": "_farmerName",
          "type": "string"
        },
        {
          "internalType": "uint256",
          "name": "_farmerAadharNumber",
          "type": "uint256"
        },
        {
          "internalType": "uint256",
          "name": "_farmerMobileNumber",
          "type": "uint256"
        }
      ],
      "name": "addFarmer",
      "outputs": [],
      "payable": false,
      "stateMutability": "nonpayable",
      "type": "function"
    },
    {
      "constant": false,
      "inputs": [
        {
          "internalType": "string",
          "name": "_warehouseName",
          "type": "string"
        },
        {
          "internalType": "uint256",
          "name": "_warehouseRegNumber",
          "type": "uint256"
        },
        {
          "internalType": "uint256",
          "name": "_warehouseContactNumber",
          "type": "uint256"
        },
        {
          "internalType": "uint256",
          "name": "_warehouseCapacity",
          "type": "uint256"
        }
      ],
      "name": "addWarehouse",
      "outputs": [],
      "payable": false,
      "stateMutability": "nonpayable",
      "type": "function"
    },
    {
      "constant": false,
      "inputs": [
        {
          "internalType": "string",
          "name": "_buyerName",
          "type": "string"
        },
        {
          "internalType": "uint256",
          "name": "_buyerAadharNumber",
          "type": "uint256"
        },
        {
          "internalType": "uint256",
          "name": "_buyerMobileNumber",
          "type": "uint256"
        }
      ],
      "name": "addBuyer",
      "outputs": [],
      "payable": false,
      "stateMutability": "nonpayable",
      "type": "function"
    }
  ],
  "bytecode": "0x60806040526000600155600060025560006003553480156200002057600080fd5b506040518060400160405280600e81526020017f41646d696e20436f6e7472616374000000000000000000000000000000000000815250600090805190602001906200006e92919062000075565b5062000124565b828054600181600116156101000203166002900490600052602060002090601f016020900481019282601f10620000b857805160ff1916838001178555620000e9565b82800160010185558215620000e9579182015b82811115620000e8578251825591602001919060010190620000cb565b5b509050620000f89190620000fc565b5090565b6200012191905b808211156200011d57600081600090555060010162000103565b5090565b90565b61124d80620001346000396000f3fe608060405234801561001057600080fd5b506004361061009e5760003560e01c8063a4f5e5e811610066578063a4f5e5e814610300578063a7e6a17f146103fa578063ace12dc5146104f4578063bd45b397146105cd578063fa9c58c3146105eb5761009e565b806306fdde03146100a35780632abc2ced146101265780636fe47b86146101f55780638b93c913146102135780639e0cea05146102e2575b600080fd5b6100ab6106ec565b6040518080602001828103825283818151815260200191508051906020019080838360005b838110156100eb5780820151818401526020810190506100d0565b50505050905090810190601f1680156101185780820380516001836020036101000a031916815260200191505b509250505060405180910390f35b6101f36004803603606081101561013c57600080fd5b810190808035906020019064010000000081111561015957600080fd5b82018360208201111561016b57600080fd5b8035906020019184600183028401116401000000008311171561018d57600080fd5b91908080601f016020809104026020016040519081016040528093929190818152602001838380828437600081840152601f19601f820116905080830192505050505050509192919290803590602001909291908035906020019092919050505061078a565b005b6101fd6109c2565b6040518082815260200191505060405180910390f35b6102e06004803603606081101561022957600080fd5b810190808035906020019064010000000081111561024657600080fd5b82018360208201111561025857600080fd5b8035906020019184600183028401116401000000008311171561027a57600080fd5b91908080601f016020809104026020016040519081016040528093929190818152602001838380828437600081840152601f19601f82011690508083019250505050505050919291929080359060200190929190803590602001909291905050506109c8565b005b6102ea610c00565b6040518082815260200191505060405180910390f35b61032c6004803603602081101561031657600080fd5b8101908080359060200190929190505050610c06565b60405180878152602001806020018681526020018581526020018473ffffffffffffffffffffffffffffffffffffffff1673ffffffffffffffffffffffffffffffffffffffff16815260200183151515158152602001828103825287818151815260200191508051906020019080838360005b838110156103ba57808201518184015260208101905061039f565b50505050905090810190601f1680156103e75780820380516001836020036101000a031916815260200191505b5097505050505050505060405180910390f35b6104266004803603602081101561041057600080fd5b8101908080359060200190929190505050610d07565b60405180878152602001806020018681526020018581526020018473ffffffffffffffffffffffffffffffffffffffff1673ffffffffffffffffffffffffffffffffffffffff16815260200183151515158152602001828103825287818151815260200191508051906020019080838360005b838110156104b4578082015181840152602081019050610499565b50505050905090810190601f1680156104e15780820380516001836020036101000a031916815260200191505b5097505050505050505060405180910390f35b6105cb6004803603608081101561050a57600080fd5b810190808035906020019064010000000081111561052757600080fd5b82018360208201111561053957600080fd5b8035906020019184600183028401116401000000008311171561055b57600080fd5b91908080601f016020809104026020016040519081016040528093929190818152602001838380828437600081840152601f19601f820116905080830192505050505050509192919290803590602001909291908035906020019092919080359060200190929190505050610e08565b005b6105d5611066565b6040518082815260200191505060405180910390f35b6106176004803603602081101561060157600080fd5b810190808035906020019092919050505061106c565b60405180888152602001806020018781526020018681526020018581526020018473ffffffffffffffffffffffffffffffffffffffff1673ffffffffffffffffffffffffffffffffffffffff16815260200183151515158152602001828103825288818151815260200191508051906020019080838360005b838110156106ab578082015181840152602081019050610690565b50505050905090810190601f1680156106d85780820380516001836020036101000a031916815260200191505b509850505050505050505060405180910390f35b60008054600181600116156101000203166002900480601f0160208091040260200160405190810160405280929190818152602001828054600181600116156101000203166002900480156107825780601f1061075757610100808354040283529160200191610782565b820191906000526020600020905b81548152906001019060200180831161076557829003601f168201915b505050505081565b600083511161079857600080fd5b600c82146107a557600080fd5b600a81146107b257600080fd5b6001600081548092919060010191905055506040518060c0016040528060015481526020018481526020018381526020018281526020013373ffffffffffffffffffffffffffffffffffffffff16815260200160001515815250600460006001548152602001908152602001600020600082015181600001556020820151816001019080519060200190610847929190611173565b50604082015181600201556060820151816003015560808201518160040160006101000a81548173ffffffffffffffffffffffffffffffffffffffff021916908373ffffffffffffffffffffffffffffffffffffffff16021790555060a08201518160040160146101000a81548160ff0219169083151502179055509050507f7a050ebae96df78b11626b2962a6c74fdec1437a57fb2aabb499bc20071bf44c60015484848433600060405180878152602001806020018681526020018581526020018473ffffffffffffffffffffffffffffffffffffffff1673ffffffffffffffffffffffffffffffffffffffff16815260200183151515158152602001828103825287818151815260200191508051906020019080838360005b8381101561097e578082015181840152602081019050610963565b50505050905090810190601f1680156109ab5780820380516001836020036101000a031916815260200191505b5097505050505050505060405180910390a1505050565b60025481565b60008351116109d657600080fd5b601082146109e357600080fd5b600a81146109f057600080fd5b6003600081548092919060010191905055506040518060c0016040528060035481526020018481526020018381526020018281526020013373ffffffffffffffffffffffffffffffffffffffff16815260200160001515815250600660006003548152602001908152602001600020600082015181600001556020820151816001019080519060200190610a85929190611173565b50604082015181600201556060820151816003015560808201518160040160006101000a81548173ffffffffffffffffffffffffffffffffffffffff021916908373ffffffffffffffffffffffffffffffffffffffff16021790555060a08201518160040160146101000a81548160ff0219169083151502179055509050507f18e620e563d62d2d9a49361ffad880c30b493f7c058918d2c251527a2d3b560760035484848433600060405180878152602001806020018681526020018581526020018473ffffffffffffffffffffffffffffffffffffffff1673ffffffffffffffffffffffffffffffffffffffff16815260200183151515158152602001828103825287818151815260200191508051906020019080838360005b83811015610bbc578082015181840152602081019050610ba1565b50505050905090810190601f168015610be95780820380516001836020036101000a031916815260200191505b5097505050505050505060405180910390a1505050565b60035481565b6004602052806000526040600020600091509050806000015490806001018054600181600116156101000203166002900480601f016020809104026020016040519081016040528092919081815260200182805460018160011615610100020316600290048015610cb85780601f10610c8d57610100808354040283529160200191610cb8565b820191906000526020600020905b815481529060010190602001808311610c9b57829003601f168201915b5050505050908060020154908060030154908060040160009054906101000a900473ffffffffffffffffffffffffffffffffffffffff16908060040160149054906101000a900460ff16905086565b6006602052806000526040600020600091509050806000015490806001018054600181600116156101000203166002900480601f016020809104026020016040519081016040528092919081815260200182805460018160011615610100020316600290048015610db95780601f10610d8e57610100808354040283529160200191610db9565b820191906000526020600020905b815481529060010190602001808311610d9c57829003601f168201915b5050505050908060020154908060030154908060040160009054906101000a900473ffffffffffffffffffffffffffffffffffffffff16908060040160149054906101000a900460ff16905086565b6000845111610e1657600080fd5b60068314610e2357600080fd5b600a8214610e3057600080fd5b60648111610e3d57600080fd5b6002600081548092919060010191905055506040518060e0016040528060025481526020018581526020018481526020018381526020018281526020013373ffffffffffffffffffffffffffffffffffffffff16815260200160001515815250600560006002548152602001908152602001600020600082015181600001556020820151816001019080519060200190610ed8929190611173565b5060408201518160020155606082015181600301556080820151816004015560a08201518160050160006101000a81548173ffffffffffffffffffffffffffffffffffffffff021916908373ffffffffffffffffffffffffffffffffffffffff16021790555060c08201518160050160146101000a81548160ff0219169083151502179055509050507f1d53a1ce016ecd648004314716fe76190f5ebb845b0c0b6065105a9c7f7efff36002548585858533600060405180888152602001806020018781526020018681526020018581526020018473ffffffffffffffffffffffffffffffffffffffff1673ffffffffffffffffffffffffffffffffffffffff16815260200183151515158152602001828103825288818151815260200191508051906020019080838360005b83811015611020578082015181840152602081019050611005565b50505050905090810190601f16801561104d5780820380516001836020036101000a031916815260200191505b509850505050505050505060405180910390a150505050565b60015481565b6005602052806000526040600020600091509050806000015490806001018054600181600116156101000203166002900480601f01602080910402602001604051908101604052809291908181526020018280546001816001161561010002031660029004801561111e5780601f106110f35761010080835404028352916020019161111e565b820191906000526020600020905b81548152906001019060200180831161110157829003601f168201915b5050505050908060020154908060030154908060040154908060050160009054906101000a900473ffffffffffffffffffffffffffffffffffffffff16908060050160149054906101000a900460ff16905087565b828054600181600116156101000203166002900490600052602060002090601f016020900481019282601f106111b457805160ff19168380011785556111e2565b828001600101855582156111e2579182015b828111156111e15782518255916020019190600101906111c6565b5b5090506111ef91906111f3565b5090565b61121591905b808211156112115760008160009055506001016111f9565b5090565b9056fea265627a7a72315820da6ef958754d10f642a09ac00550077dcd93e2e634e5d930da8ad3144761cbf764736f6c63430005100032",
  "source": "pragma solidity ^0.5.0;\n\ncontract Admin {\n    string public name;\n    uint256 public farmerCount = 0;\n    uint256 public warehouseCount = 0;\n    uint256 public buyerCount = 0;\n    \n    mapping(uint256 => FarmerDetail) public farmerDetails;\n    mapping(uint256 => WarehouseDetail) public warehouseDetails;\n    mapping(uint256 => BuyerDetail) public buyerDetails;\n\n    struct FarmerDetail {\n        uint256 farmerId;\n        string farmerName;\n        uint256 farmerAadharNumber;\n        uint256 farmerMobileNumber;\n        address payable owner;\n        bool farmerAdded;\n    }\n\n    struct WarehouseDetail {\n        uint256 warehouseId;\n        string warehouseName;\n        uint256 warehouseRegNumber;\n        uint256 warehouseContactNumber;\n        uint256 warehouseCapacity;\n        address payable owner;\n        bool warehouseAdded;\n    }\n\n    struct BuyerDetail {\n        uint256 buyerId;\n        string buyerName;\n        uint256 buyerAadharNumber;\n        uint256 buyerMobileNumber;\n        address payable owner;\n        bool buyerAdded;\n    }\n\n    event FarmerAdded (\n        uint256 farmerId,\n        string farmerName,\n        uint256 farmerAadharNumber,\n        uint256 farmerMobileNumber,\n        address payable owner,\n        bool farmerAdded\n    );\n\n    event WarehouseAdded (\n        uint256 warehouseId,\n        string warehouseName,\n        uint256 warehouseRegNumber,\n        uint256 warehouseContactNumber,\n        uint256 warehouseCapacity,\n        address payable owner,\n        bool warehouseAdded\n    );\n\n    event BuyerAdded (\n        uint256 buyerId,\n        string buyerName,\n        uint256 buyerAadharNumber,\n        uint256 buyerMobileNumber,\n        address payable owner,\n        bool buyerAdded\n    );\n\n    constructor() public {\n        name = \"Admin Contract\";\n    }\n\n    function addFarmer(string memory _farmerName, uint256 _farmerAadharNumber, uint256 _farmerMobileNumber) public {\n        //Require a valid name\n        require(bytes(_farmerName).length > 0);\n\n        //Require a valid price\n        require(_farmerAadharNumber == 12);\n\n        //Require a valid contact number\n        require(_farmerMobileNumber == 10);\n\n        //Increment product count\n        farmerCount++;\n\n        //Create the product\n        farmerDetails[farmerCount] = FarmerDetail(\n            farmerCount,\n            _farmerName,\n            _farmerAadharNumber,\n            _farmerMobileNumber,\n            msg.sender,\n            false\n        );\n\n        // Trigger an event\n        emit FarmerAdded(farmerCount, _farmerName, _farmerAadharNumber, _farmerMobileNumber,msg.sender, false);\n    }\n\n    function addWarehouse(string memory _warehouseName, uint256 _warehouseRegNumber, uint256 _warehouseContactNumber, uint256 _warehouseCapacity) public {\n        //Require a valid name\n        require(bytes(_warehouseName).length > 0);\n\n        //Require a valid price\n        require(_warehouseRegNumber == 6);\n\n        //Require a valid contact number\n        require(_warehouseContactNumber == 10);\n\n        //Require a min capacity of warehouse\n        require(_warehouseCapacity > 100);\n\n        //Increment product count\n        warehouseCount++;\n\n        //Create the product\n        warehouseDetails[warehouseCount] = WarehouseDetail(\n            warehouseCount,\n            _warehouseName,\n            _warehouseRegNumber,\n            _warehouseContactNumber,\n            _warehouseCapacity,\n            msg.sender,\n            false\n        );\n\n        // Trigger an event\n        emit WarehouseAdded(warehouseCount, _warehouseName, _warehouseRegNumber, _warehouseContactNumber, _warehouseCapacity,msg.sender, false);\n    }\n\n    function addBuyer(string memory _buyerName, uint256 _buyerAadharNumber, uint256 _buyerMobileNumber) public {\n        //Require a valid name\n        require(bytes(_buyerName).length > 0);\n\n        //Require a valid price\n        require(_buyerAadharNumber == 16);\n\n        //Require a valid contact number\n        require(_buyerMobileNumber == 10);\n\n        //Increment product count\n        buyerCount++;\n\n        //Create the product\n        buyerDetails[buyerCount] = BuyerDetail(\n            buyerCount,\n            _buyerName,\n            _buyerAadharNumber,\n            _buyerMobileNumber,\n            msg.sender,\n            false\n        );\n\n        // Trigger an event\n        emit BuyerAdded(buyerCount, _buyerName, _buyerAadharNumber, _buyerMobileNumber,msg.sender, false);\n    }\n\n}",
  "sourcePath": "/Users/princypandey/Warehouse-Block-Management/src/contracts/Admin.sol",
  "compiler": {
    "name": "solc",
    "version": "0.5.16+commit.9c3226ce.Emscripten.clang"
  },
  "schemaVersion": "3.4.3",
  "updatedAt": "2022-01-30T15:21:11.111Z",
  "networkType": "ethereum",
  "devdoc": {
    "methods": {}
  },
  "userdoc": {
    "methods": {}
  }
}